{
  "contractName": "SharkOwnership",
  "abi": [
    {
      "constant": false,
      "inputs": [
        {
          "name": "_sharkId",
          "type": "uint256"
        },
        {
          "name": "_targetId",
          "type": "uint256"
        }
      ],
      "name": "sharkRace",
      "outputs": [],
      "payable": false,
      "stateMutability": "nonpayable",
      "type": "function"
    },
    {
      "constant": true,
      "inputs": [
        {
          "name": "",
          "type": "uint256"
        }
      ],
      "name": "sharks",
      "outputs": [
        {
          "name": "speed",
          "type": "uint256"
        },
        {
          "name": "strength",
          "type": "uint256"
        },
        {
          "name": "typeOfShark",
          "type": "string"
        },
        {
          "name": "winCount",
          "type": "uint256"
        },
        {
          "name": "level",
          "type": "uint256"
        },
        {
          "name": "lossCount",
          "type": "uint256"
        }
      ],
      "payable": false,
      "stateMutability": "view",
      "type": "function"
    },
    {
      "constant": false,
      "inputs": [
        {
          "name": "_sharkId",
          "type": "uint256"
        }
      ],
      "name": "trainShark",
      "outputs": [],
      "payable": false,
      "stateMutability": "nonpayable",
      "type": "function"
    },
    {
      "constant": true,
      "inputs": [],
      "name": "getShark",
      "outputs": [
        {
          "name": "",
          "type": "uint256[]"
        }
      ],
      "payable": false,
      "stateMutability": "view",
      "type": "function"
    },
    {
      "constant": true,
      "inputs": [
        {
          "name": "",
          "type": "uint256"
        }
      ],
      "name": "species",
      "outputs": [
        {
          "name": "",
          "type": "string"
        }
      ],
      "payable": false,
      "stateMutability": "view",
      "type": "function"
    },
    {
      "constant": false,
      "inputs": [],
      "name": "createBasicShark",
      "outputs": [],
      "payable": false,
      "stateMutability": "nonpayable",
      "type": "function"
    },
    {
      "anonymous": false,
      "inputs": [
        {
          "indexed": true,
          "name": "_from",
          "type": "address"
        },
        {
          "indexed": true,
          "name": "_to",
          "type": "address"
        },
        {
          "indexed": false,
          "name": "_tokenId",
          "type": "uint256"
        }
      ],
      "name": "Transfer",
      "type": "event"
    },
    {
      "anonymous": false,
      "inputs": [
        {
          "indexed": true,
          "name": "_owner",
          "type": "address"
        },
        {
          "indexed": true,
          "name": "_approved",
          "type": "address"
        },
        {
          "indexed": false,
          "name": "_tokenId",
          "type": "uint256"
        }
      ],
      "name": "Approval",
      "type": "event"
    },
    {
      "constant": true,
      "inputs": [
        {
          "name": "_owner",
          "type": "address"
        }
      ],
      "name": "balanceOf",
      "outputs": [
        {
          "name": "_balance",
          "type": "uint256"
        }
      ],
      "payable": false,
      "stateMutability": "view",
      "type": "function"
    },
    {
      "constant": true,
      "inputs": [
        {
          "name": "_tokenId",
          "type": "uint256"
        }
      ],
      "name": "ownerOf",
      "outputs": [
        {
          "name": "_owner",
          "type": "address"
        }
      ],
      "payable": false,
      "stateMutability": "view",
      "type": "function"
    },
    {
      "constant": false,
      "inputs": [
        {
          "name": "_to",
          "type": "address"
        },
        {
          "name": "_tokenId",
          "type": "uint256"
        }
      ],
      "name": "transfer",
      "outputs": [],
      "payable": false,
      "stateMutability": "nonpayable",
      "type": "function"
    },
    {
      "constant": false,
      "inputs": [
        {
          "name": "_to",
          "type": "address"
        },
        {
          "name": "_tokenId",
          "type": "uint256"
        }
      ],
      "name": "approve",
      "outputs": [],
      "payable": false,
      "stateMutability": "nonpayable",
      "type": "function"
    },
    {
      "constant": false,
      "inputs": [
        {
          "name": "_tokenId",
          "type": "uint256"
        }
      ],
      "name": "takeOwnership",
      "outputs": [],
      "payable": false,
      "stateMutability": "nonpayable",
      "type": "function"
    }
  ],
  "bytecode": "0x60606040526000600d556046600e55341561001957600080fd5b611152806100286000396000f3006060604052600436106100af576000357c0100000000000000000000000000000000000000000000000000000000900463ffffffff168063095ea7b3146100b45780631aff92df146100f65780632e9aca241461012257806333ac6c7d146101fe5780633dda168e1461022157806355ed26c91461028b5780636352211e1461032757806370a082311461038a578063a9059cbb146103d7578063b2e6ceeb14610419578063ba19b6551461043c575b600080fd5b34156100bf57600080fd5b6100f4600480803573ffffffffffffffffffffffffffffffffffffffff16906020019091908035906020019091905050610451565b005b341561010157600080fd5b610120600480803590602001909190803590602001909190505061057b565b005b341561012d57600080fd5b61014360048080359060200190919050506106b3565b60405180878152602001868152602001806020018581526020018481526020018381526020018281038252868181546001816001161561010002031660029004815260200191508054600181600116156101000203166002900480156101ea5780601f106101bf576101008083540402835291602001916101ea565b820191906000526020600020905b8154815290600101906020018083116101cd57829003601f168201915b505097505050505050505060405180910390f35b341561020957600080fd5b61021f60048080359060200190919050506106fd565b005b341561022c57600080fd5b6102346107cd565b6040518080602001828103825283818151815260200191508051906020019060200280838360005b8381101561027757808201518184015260208101905061025c565b505050509050019250505060405180910390f35b341561029657600080fd5b6102ac60048080359060200190919050506108f9565b6040518080602001828103825283818151815260200191508051906020019080838360005b838110156102ec5780820151818401526020810190506102d1565b50505050905090810190601f1680156103195780820380516001836020036101000a031916815260200191505b509250505060405180910390f35b341561033257600080fd5b61034860048080359060200190919050506109ab565b604051808273ffffffffffffffffffffffffffffffffffffffff1673ffffffffffffffffffffffffffffffffffffffff16815260200191505060405180910390f35b341561039557600080fd5b6103c1600480803573ffffffffffffffffffffffffffffffffffffffff169060200190919050506109e8565b6040518082815260200191505060405180910390f35b34156103e257600080fd5b610417600480803573ffffffffffffffffffffffffffffffffffffffff16906020019091908035906020019091905050610a31565b005b341561042457600080fd5b61043a6004808035906020019091905050610aaf565b005b341561044757600080fd5b61044f610b63565b005b80600b600082815260200190815260200160002060009054906101000a900473ffffffffffffffffffffffffffffffffffffffff1673ffffffffffffffffffffffffffffffffffffffff163373ffffffffffffffffffffffffffffffffffffffff161415156104bf57600080fd5b82600f600084815260200190815260200160002060006101000a81548173ffffffffffffffffffffffffffffffffffffffff021916908373ffffffffffffffffffffffffffffffffffffffff1602179055508273ffffffffffffffffffffffffffffffffffffffff163373ffffffffffffffffffffffffffffffffffffffff167f8c5be1e5ebec7d5bd14f71427d1e84f3dd0314c0f7b2291e5b200ac8c7c3b925846040518082815260200191505060405180910390a3505050565b6000806000600b600086815260200190815260200160002060009054906101000a900473ffffffffffffffffffffffffffffffffffffffff1673ffffffffffffffffffffffffffffffffffffffff163373ffffffffffffffffffffffffffffffffffffffff161415156105ed57600080fd5b600a858154811015156105fc57fe5b90600052602060002090600602019250600a8481548110151561061b57fe5b906000526020600020906006020191506106356064610cf0565b9050600e5481111515610683578260030160008154809291906001019190505550826004016000815480929190600101919050555081600501600081548092919060010191905055506106ac565b826005016000815480929190600101919050555081600301600081548092919060010191905055505b5050505050565b600a818154811015156106c257fe5b906000526020600020906006020160009150905080600001549080600101549080600201908060030154908060040154908060050154905086565b600b600082815260200190815260200160002060009054906101000a900473ffffffffffffffffffffffffffffffffffffffff1673ffffffffffffffffffffffffffffffffffffffff163373ffffffffffffffffffffffffffffffffffffffff1614151561076a57600080fd5b600a8181548110151561077957fe5b906000526020600020906006020160000160008154809291906001019190505550600a818154811015156107a957fe5b90600052602060002090600602016001016000815480929190600101919050555050565b6107d5610f9c565b6107dd610f9c565b600080600c60003373ffffffffffffffffffffffffffffffffffffffff1673ffffffffffffffffffffffffffffffffffffffff1681526020019081526020016000205460405180591061082d5750595b9080825280602002602001820160405250925060009150600090505b600a805490508110156108f0573373ffffffffffffffffffffffffffffffffffffffff16600b600083815260200190815260200160002060009054906101000a900473ffffffffffffffffffffffffffffffffffffffff1673ffffffffffffffffffffffffffffffffffffffff1614156108e3578083838151811015156108cc57fe5b906020019060200201818152505081806001019250505b8080600101915050610849565b82935050505090565b600081600a8110151561090857fe5b016000915090508054600181600116156101000203166002900480601f0160208091040260200160405190810160405280929190818152602001828054600181600116156101000203166002900480156109a35780601f10610978576101008083540402835291602001916109a3565b820191906000526020600020905b81548152906001019060200180831161098657829003601f168201915b505050505081565b6000600b600083815260200190815260200160002060009054906101000a900473ffffffffffffffffffffffffffffffffffffffff169050919050565b6000600c60008373ffffffffffffffffffffffffffffffffffffffff1673ffffffffffffffffffffffffffffffffffffffff168152602001908152602001600020549050919050565b80600b600082815260200190815260200160002060009054906101000a900473ffffffffffffffffffffffffffffffffffffffff1673ffffffffffffffffffffffffffffffffffffffff163373ffffffffffffffffffffffffffffffffffffffff16141515610a9f57600080fd5b610aaa338484610d7d565b505050565b60003373ffffffffffffffffffffffffffffffffffffffff16600f600084815260200190815260200160002060009054906101000a900473ffffffffffffffffffffffffffffffffffffffff1673ffffffffffffffffffffffffffffffffffffffff16141515610b1e57600080fd5b600b600083815260200190815260200160002060009054906101000a900473ffffffffffffffffffffffffffffffffffffffff169050610b5f813384610d7d565b5050565b60006001600a8054806001018281610b7b9190610fb0565b9160005260206000209060060201600060c060405190810160405280600a8152602001600a81526020016040805190810160405280601381526020017f626c61636b746970207265656620736861726b00000000000000000000000000815250815260200160008152602001600181526020016000815250909190915060008201518160000155602082015181600101556040820151816002019080519060200190610c28929190610fe2565b50606082015181600301556080820151816004015560a08201518160050155505003905033600b600083815260200190815260200160002060006101000a81548173ffffffffffffffffffffffffffffffffffffffff021916908373ffffffffffffffffffffffffffffffffffffffff160217905550600c60003373ffffffffffffffffffffffffffffffffffffffff1673ffffffffffffffffffffffffffffffffffffffff1681526020019081526020016000206000815480929190600101919050555050565b6000600d60008154809291906001019190505550814233600d54604051808481526020018373ffffffffffffffffffffffffffffffffffffffff1673ffffffffffffffffffffffffffffffffffffffff166c010000000000000000000000000281526014018281526020019350505050604051809103902060019004811515610d7557fe5b069050919050565b610dd06001600c60008573ffffffffffffffffffffffffffffffffffffffff1673ffffffffffffffffffffffffffffffffffffffff16815260200190815260200160002054610f6590919063ffffffff16565b600c60008473ffffffffffffffffffffffffffffffffffffffff1673ffffffffffffffffffffffffffffffffffffffff16815260200190815260200160002081905550610e666001600c60008673ffffffffffffffffffffffffffffffffffffffff1673ffffffffffffffffffffffffffffffffffffffff16815260200190815260200160002054610f8390919063ffffffff16565b600c60008573ffffffffffffffffffffffffffffffffffffffff1673ffffffffffffffffffffffffffffffffffffffff1681526020019081526020016000208190555081600b600083815260200190815260200160002060006101000a81548173ffffffffffffffffffffffffffffffffffffffff021916908373ffffffffffffffffffffffffffffffffffffffff1602179055508173ffffffffffffffffffffffffffffffffffffffff168373ffffffffffffffffffffffffffffffffffffffff167fddf252ad1be2c89b69c2b068fc378daa952ba7f163c4a11628f55a4df523b3ef836040518082815260200191505060405180910390a3505050565b6000808284019050838110151515610f7957fe5b8091505092915050565b6000828211151515610f9157fe5b818303905092915050565b602060405190810160405280600081525090565b815481835581811511610fdd57600602816006028360005260206000209182019101610fdc9190611062565b5b505050565b828054600181600116156101000203166002900490600052602060002090601f016020900481019282601f1061102357805160ff1916838001178555611051565b82800160010185558215611051579182015b82811115611050578251825591602001919060010190611035565b5b50905061105e91906110b9565b5090565b6110b691905b808211156110b257600080820160009055600182016000905560028201600061109191906110de565b60038201600090556004820160009055600582016000905550600601611068565b5090565b90565b6110db91905b808211156110d75760008160009055506001016110bf565b5090565b90565b50805460018160011615610100020316600290046000825580601f106111045750611123565b601f01602090049060005260206000209081019061112291906110b9565b5b505600a165627a7a723058202b77ae57bc18732fdac6e093032c1981128a8d55dfcf8ee24325ac521ee1c25d0029",
  "source": "pragma solidity ^0.4.18;\r\n\r\nimport \"./SharkRace.sol\";\r\nimport \"./erc721.sol\";\r\nimport \"./SafeMath.sol\";\r\n\r\ncontract SharkOwnership is SharkRace, ERC721 {\r\n\r\n    using SafeMath for uint256;\r\n\r\n    mapping (uint => address) sharkApprovals;\r\n\r\n    function balanceOf(address _owner) public view returns (uint256 _balance) {\r\n        return ownerSharkCount[_owner];\r\n    }\r\n\r\n    function ownerOf(uint256 _tokenId) public view returns (address _owner) {\r\n        return owners[_tokenId];\r\n    }\r\n\r\n     function _transfer(address _from, address _to, uint256 _tokenId) private {\r\n            ownerSharkCount[_to] = ownerSharkCount[_to].add(1);\r\n        ownerSharkCount[_from] = ownerSharkCount[_from].sub(1);\r\n        owners[_tokenId] = _to;\r\n        Transfer(_from, _to, _tokenId);\r\n     }\r\n\r\n    function transfer(address _to, uint256 _tokenId) public onlyOwnerOf(_tokenId) {\r\n        _transfer(msg.sender, _to, _tokenId);\r\n       \r\n    }\r\n\r\n    function approve(address _to, uint256 _tokenId) public onlyOwnerOf(_tokenId) {\r\n        sharkApprovals[_tokenId] = _to;\r\n        Approval(msg.sender, _to, _tokenId);\r\n        \r\n    }\r\n\r\n    function takeOwnership(uint256 _tokenId) public {\r\n        require(sharkApprovals[_tokenId] == msg.sender);\r\n        address owner = owners[_tokenId];\r\n        _transfer(owner, msg.sender, _tokenId);\r\n    }\r\n}",
  "sourcePath": "C:\\Users\\ianwh\\Desktop\\Blockchain\\contracts\\SharkOwnership.sol",
  "compiler": {
    "name": "solc",
    "version": "0.4.19+commit.c4cbbb05.Emscripten.clang"
  },
  "schemaVersion": "1.0.1",
  "updatedAt": "2018-03-10T21:39:10.450Z"
}