{
  "contractName": "SharkRace",
  "abi": [
    {
      "constant": true,
      "inputs": [
        {
          "name": "",
          "type": "uint256"
        }
      ],
      "name": "sharks",
      "outputs": [
        {
          "name": "speed",
          "type": "uint256"
        },
        {
          "name": "strength",
          "type": "uint256"
        },
        {
          "name": "typeOfShark",
          "type": "string"
        },
        {
          "name": "winCount",
          "type": "uint256"
        },
        {
          "name": "level",
          "type": "uint256"
        },
        {
          "name": "lossCount",
          "type": "uint256"
        }
      ],
      "payable": false,
      "stateMutability": "view",
      "type": "function"
    },
    {
      "constant": false,
      "inputs": [
        {
          "name": "_sharkId",
          "type": "uint256"
        }
      ],
      "name": "trainShark",
      "outputs": [],
      "payable": false,
      "stateMutability": "nonpayable",
      "type": "function"
    },
    {
      "constant": true,
      "inputs": [],
      "name": "getShark",
      "outputs": [
        {
          "name": "",
          "type": "uint256[]"
        }
      ],
      "payable": false,
      "stateMutability": "view",
      "type": "function"
    },
    {
      "constant": true,
      "inputs": [
        {
          "name": "",
          "type": "uint256"
        }
      ],
      "name": "species",
      "outputs": [
        {
          "name": "",
          "type": "string"
        }
      ],
      "payable": false,
      "stateMutability": "view",
      "type": "function"
    },
    {
      "constant": false,
      "inputs": [],
      "name": "createBasicShark",
      "outputs": [],
      "payable": false,
      "stateMutability": "nonpayable",
      "type": "function"
    },
    {
      "constant": false,
      "inputs": [
        {
          "name": "_sharkId",
          "type": "uint256"
        },
        {
          "name": "_targetId",
          "type": "uint256"
        }
      ],
      "name": "sharkRace",
      "outputs": [],
      "payable": false,
      "stateMutability": "nonpayable",
      "type": "function"
    }
  ],
  "bytecode": "0x60606040526000600d556046600e55341561001957600080fd5b610ac3806100286000396000f300606060405260043610610078576000357c0100000000000000000000000000000000000000000000000000000000900463ffffffff1680631aff92df1461007d5780632e9aca24146100a957806333ac6c7d146101855780633dda168e146101a857806355ed26c914610212578063ba19b655146102ae575b600080fd5b341561008857600080fd5b6100a760048080359060200190919080359060200190919050506102c3565b005b34156100b457600080fd5b6100ca60048080359060200190919050506103fb565b60405180878152602001868152602001806020018581526020018481526020018381526020018281038252868181546001816001161561010002031660029004815260200191508054600181600116156101000203166002900480156101715780601f1061014657610100808354040283529160200191610171565b820191906000526020600020905b81548152906001019060200180831161015457829003601f168201915b505097505050505050505060405180910390f35b341561019057600080fd5b6101a66004808035906020019091905050610445565b005b34156101b357600080fd5b6101bb610515565b6040518080602001828103825283818151815260200191508051906020019060200280838360005b838110156101fe5780820151818401526020810190506101e3565b505050509050019250505060405180910390f35b341561021d57600080fd5b6102336004808035906020019091905050610641565b6040518080602001828103825283818151815260200191508051906020019080838360005b83811015610273578082015181840152602081019050610258565b50505050905090810190601f1680156102a05780820380516001836020036101000a031916815260200191505b509250505060405180910390f35b34156102b957600080fd5b6102c16106f3565b005b6000806000600b600086815260200190815260200160002060009054906101000a900473ffffffffffffffffffffffffffffffffffffffff1673ffffffffffffffffffffffffffffffffffffffff163373ffffffffffffffffffffffffffffffffffffffff1614151561033557600080fd5b600a8581548110151561034457fe5b90600052602060002090600602019250600a8481548110151561036357fe5b9060005260206000209060060201915061037d6064610880565b9050600e54811115156103cb578260030160008154809291906001019190505550826004016000815480929190600101919050555081600501600081548092919060010191905055506103f4565b826005016000815480929190600101919050555081600301600081548092919060010191905055505b5050505050565b600a8181548110151561040a57fe5b906000526020600020906006020160009150905080600001549080600101549080600201908060030154908060040154908060050154905086565b600b600082815260200190815260200160002060009054906101000a900473ffffffffffffffffffffffffffffffffffffffff1673ffffffffffffffffffffffffffffffffffffffff163373ffffffffffffffffffffffffffffffffffffffff161415156104b257600080fd5b600a818154811015156104c157fe5b906000526020600020906006020160000160008154809291906001019190505550600a818154811015156104f157fe5b90600052602060002090600602016001016000815480929190600101919050555050565b61051d61090d565b61052561090d565b600080600c60003373ffffffffffffffffffffffffffffffffffffffff1673ffffffffffffffffffffffffffffffffffffffff168152602001908152602001600020546040518059106105755750595b9080825280602002602001820160405250925060009150600090505b600a80549050811015610638573373ffffffffffffffffffffffffffffffffffffffff16600b600083815260200190815260200160002060009054906101000a900473ffffffffffffffffffffffffffffffffffffffff1673ffffffffffffffffffffffffffffffffffffffff16141561062b5780838381518110151561061457fe5b906020019060200201818152505081806001019250505b8080600101915050610591565b82935050505090565b600081600a8110151561065057fe5b016000915090508054600181600116156101000203166002900480601f0160208091040260200160405190810160405280929190818152602001828054600181600116156101000203166002900480156106eb5780601f106106c0576101008083540402835291602001916106eb565b820191906000526020600020905b8154815290600101906020018083116106ce57829003601f168201915b505050505081565b60006001600a805480600101828161070b9190610921565b9160005260206000209060060201600060c060405190810160405280600a8152602001600a81526020016040805190810160405280601381526020017f626c61636b746970207265656620736861726b000000000000000000000000008152508152602001600081526020016001815260200160008152509091909150600082015181600001556020820151816001015560408201518160020190805190602001906107b8929190610953565b50606082015181600301556080820151816004015560a08201518160050155505003905033600b600083815260200190815260200160002060006101000a81548173ffffffffffffffffffffffffffffffffffffffff021916908373ffffffffffffffffffffffffffffffffffffffff160217905550600c60003373ffffffffffffffffffffffffffffffffffffffff1673ffffffffffffffffffffffffffffffffffffffff1681526020019081526020016000206000815480929190600101919050555050565b6000600d60008154809291906001019190505550814233600d54604051808481526020018373ffffffffffffffffffffffffffffffffffffffff1673ffffffffffffffffffffffffffffffffffffffff166c01000000000000000000000000028152601401828152602001935050505060405180910390206001900481151561090557fe5b069050919050565b602060405190810160405280600081525090565b81548183558181151161094e5760060281600602836000526020600020918201910161094d91906109d3565b5b505050565b828054600181600116156101000203166002900490600052602060002090601f016020900481019282601f1061099457805160ff19168380011785556109c2565b828001600101855582156109c2579182015b828111156109c15782518255916020019190600101906109a6565b5b5090506109cf9190610a2a565b5090565b610a2791905b80821115610a23576000808201600090556001820160009055600282016000610a029190610a4f565b600382016000905560048201600090556005820160009055506006016109d9565b5090565b90565b610a4c91905b80821115610a48576000816000905550600101610a30565b5090565b90565b50805460018160011615610100020316600290046000825580601f10610a755750610a94565b601f016020900490600052602060002090810190610a939190610a2a565b5b505600a165627a7a723058202d6751abd473000f7d93e11611a4173d6bb19c209b7648c4c55232944501e2000029",
  "source": "pragma solidity ^0.4.18;\r\n\r\nimport \"./Shark.sol\";\r\n\r\ncontract SharkRace is Shark {\r\n  uint randNonce = 0;\r\n  uint attackVictoryProbability = 70;\r\n\r\n  function randMod(uint _modulus) internal returns(uint) {\r\n    randNonce++;\r\n    return uint(keccak256(now, msg.sender, randNonce)) % _modulus;\r\n  }\r\n\r\n  function sharkRace(uint _sharkId, uint _targetId) external  {\r\n    require (msg.sender == owners[_sharkId]);\r\n    SharkObject storage myShark = sharks[_sharkId];\r\n    SharkObject storage enemyShark = sharks[_targetId];\r\n    uint rand = randMod(100);\r\n    if (rand <= attackVictoryProbability) {\r\n      myShark.winCount++;\r\n      myShark.level++;\r\n      enemyShark.lossCount++;\r\n\r\n    } else {\r\n      myShark.lossCount++;\r\n      enemyShark.winCount++;\r\n    }\r\n    \r\n  }\r\n}",
  "sourcePath": "C:\\Users\\ianwh\\Desktop\\Blockchain\\contracts\\SharkRace.sol",
  "compiler": {
    "name": "solc",
    "version": "0.4.19+commit.c4cbbb05.Emscripten.clang"
  },
  "schemaVersion": "1.0.1",
  "updatedAt": "2018-03-10T20:21:08.165Z"
}