{
  "contractName": "Shark",
  "abi": [
    {
      "constant": true,
      "inputs": [
        {
          "name": "",
          "type": "uint256"
        }
      ],
      "name": "sharks",
      "outputs": [
        {
          "name": "speed",
          "type": "uint256"
        },
        {
          "name": "strength",
          "type": "uint256"
        },
        {
          "name": "typeOfShark",
          "type": "string"
        }
      ],
      "payable": false,
      "stateMutability": "view",
      "type": "function"
    },
    {
      "constant": true,
      "inputs": [
        {
          "name": "",
          "type": "uint256"
        }
      ],
      "name": "species",
      "outputs": [
        {
          "name": "",
          "type": "string"
        }
      ],
      "payable": false,
      "stateMutability": "view",
      "type": "function"
    },
    {
      "constant": false,
      "inputs": [],
      "name": "createBasicShark",
      "outputs": [],
      "payable": false,
      "stateMutability": "nonpayable",
      "type": "function"
    },
    {
      "constant": false,
      "inputs": [
        {
          "name": "_sharkId",
          "type": "uint256"
        }
      ],
      "name": "trainShark",
      "outputs": [],
      "payable": false,
      "stateMutability": "nonpayable",
      "type": "function"
    },
    {
      "constant": true,
      "inputs": [],
      "name": "getShark",
      "outputs": [
        {
          "name": "",
          "type": "uint256[]"
        }
      ],
      "payable": false,
      "stateMutability": "view",
      "type": "function"
    }
  ],
  "bytecode": "0x6060604052341561000f57600080fd5b6108558061001e6000396000f30060606040526004361061006d576000357c0100000000000000000000000000000000000000000000000000000000900463ffffffff1680632e9aca241461007257806333ac6c7d146101395780633dda168e1461015c57806355ed26c9146101c6578063ba19b65514610262575b600080fd5b341561007d57600080fd5b6100936004808035906020019091905050610277565b60405180848152602001838152602001806020018281038252838181546001816001161561010002031660029004815260200191508054600181600116156101000203166002900480156101285780601f106100fd57610100808354040283529160200191610128565b820191906000526020600020905b81548152906001019060200180831161010b57829003601f168201915b505094505050505060405180910390f35b341561014457600080fd5b61015a60048080359060200190919050506102af565b005b341561016757600080fd5b61016f61037f565b6040518080602001828103825283818151815260200191508051906020019060200280838360005b838110156101b2578082015181840152602081019050610197565b505050509050019250505060405180910390f35b34156101d157600080fd5b6101e760048080359060200190919050506104ab565b6040518080602001828103825283818151815260200191508051906020019080838360005b8381101561022757808201518184015260208101905061020c565b50505050905090810190601f1680156102545780820380516001836020036101000a031916815260200191505b509250505060405180910390f35b341561026d57600080fd5b61027561055d565b005b600a8181548110151561028657fe5b906000526020600020906003020160009150905080600001549080600101549080600201905083565b600b600082815260200190815260200160002060009054906101000a900473ffffffffffffffffffffffffffffffffffffffff1673ffffffffffffffffffffffffffffffffffffffff163373ffffffffffffffffffffffffffffffffffffffff1614151561031c57600080fd5b600a8181548110151561032b57fe5b906000526020600020906003020160000160008154809291906001019190505550600a8181548110151561035b57fe5b90600052602060002090600302016001016000815480929190600101919050555050565b6103876106b7565b61038f6106b7565b600080600c60003373ffffffffffffffffffffffffffffffffffffffff1673ffffffffffffffffffffffffffffffffffffffff168152602001908152602001600020546040518059106103df5750595b9080825280602002602001820160405250925060009150600090505b600a805490508110156104a2573373ffffffffffffffffffffffffffffffffffffffff16600b600083815260200190815260200160002060009054906101000a900473ffffffffffffffffffffffffffffffffffffffff1673ffffffffffffffffffffffffffffffffffffffff1614156104955780838381518110151561047e57fe5b906020019060200201818152505081806001019250505b80806001019150506103fb565b82935050505090565b600081600a811015156104ba57fe5b016000915090508054600181600116156101000203166002900480601f0160208091040260200160405190810160405280929190818152602001828054600181600116156101000203166002900480156105555780601f1061052a57610100808354040283529160200191610555565b820191906000526020600020905b81548152906001019060200180831161053857829003601f168201915b505050505081565b60006001600a805480600101828161057591906106cb565b91600052602060002090600302016000606060405190810160405280600a8152602001600a81526020016040805190810160405280601381526020017f626c61636b746970207265656620736861726b0000000000000000000000000081525081525090919091506000820151816000015560208201518160010155604082015181600201908051906020019061060d9291906106fd565b50505003905033600b600083815260200190815260200160002060006101000a81548173ffffffffffffffffffffffffffffffffffffffff021916908373ffffffffffffffffffffffffffffffffffffffff160217905550600c60003373ffffffffffffffffffffffffffffffffffffffff1673ffffffffffffffffffffffffffffffffffffffff1681526020019081526020016000206000815480929190600101919050555050565b602060405190810160405280600081525090565b8154818355818115116106f8576003028160030283600052602060002091820191016106f7919061077d565b5b505050565b828054600181600116156101000203166002900490600052602060002090601f016020900481019282601f1061073e57805160ff191683800117855561076c565b8280016001018555821561076c579182015b8281111561076b578251825591602001919060010190610750565b5b50905061077991906107bc565b5090565b6107b991905b808211156107b55760008082016000905560018201600090556002820160006107ac91906107e1565b50600301610783565b5090565b90565b6107de91905b808211156107da5760008160009055506001016107c2565b5090565b90565b50805460018160011615610100020316600290046000825580601f106108075750610826565b601f01602090049060005260206000209081019061082591906107bc565b5b505600a165627a7a72305820b0ae2046a32d25aa114f57b0906292efa28c33185ca15c5ec2f02727eabf3e340029",
  "source": "pragma solidity ^0.4.18;\r\n\r\ncontract Shark {\r\n    string[10] public species;\r\n    SharkObject[] public sharks;\r\n    mapping (uint => address) owners;\r\n    mapping (address=> uint) ownerSharkCount;\r\n    struct SharkObject {\r\n        uint speed;\r\n        uint strength;\r\n        string typeOfShark;\r\n    }\r\n\r\n    function createBasicShark() public {\r\n        uint id = sharks.push(SharkObject(10, 10, \"blacktip reef shark\")) - 1;\r\n        owners[id] = msg.sender;\r\n        ownerSharkCount[msg.sender]++;\r\n    } \r\n\r\n    function trainShark(uint _sharkId) public {\r\n        require(msg.sender == owners[_sharkId]);\r\n        sharks[_sharkId].speed ++;\r\n        sharks[_sharkId].strength ++; \r\n        // TODO: Increase Speed or Strength\r\n    }  \r\n    //TODO: Double check struct syntax\r\n    function getShark() public view returns (uint[]) {\r\n        uint[] memory result = new uint[](ownerSharkCount[msg.sender]);\r\n        uint counter = 0;\r\n        for (uint i = 0; i < sharks.length; i++) {\r\n            if (owners[i] == msg.sender) {\r\n                result[counter] = i;\r\n                counter++;\r\n            }\r\n        }\r\n        return result;\r\n    }\r\n}\r\n",
  "sourcePath": "C:\\Users\\ianwh\\Desktop\\Blockchain\\contracts\\Shark.sol",
  "compiler": {
    "name": "solc",
    "version": "0.4.19+commit.c4cbbb05.Emscripten.clang"
  },
  "schemaVersion": "1.0.1",
  "updatedAt": "2018-02-15T17:46:05.464Z"
}