{
  "contractName": "SharkRace",
  "abi": [
    {
      "constant": true,
      "inputs": [
        {
          "name": "_sharkId",
          "type": "uint256"
        }
      ],
      "name": "getShark",
      "outputs": [
        {
          "name": "speed",
          "type": "uint256"
        },
        {
          "name": "strenght",
          "type": "uint256"
        },
        {
          "name": "typeOfShark",
          "type": "string"
        },
        {
          "name": "winCount",
          "type": "uint256"
        },
        {
          "name": "level",
          "type": "uint256"
        },
        {
          "name": "lossCount",
          "type": "uint256"
        }
      ],
      "payable": false,
      "stateMutability": "view",
      "type": "function"
    },
    {
      "constant": true,
      "inputs": [
        {
          "name": "",
          "type": "uint256"
        }
      ],
      "name": "sharks",
      "outputs": [
        {
          "name": "speed",
          "type": "uint256"
        },
        {
          "name": "strength",
          "type": "uint256"
        },
        {
          "name": "typeOfShark",
          "type": "string"
        },
        {
          "name": "winCount",
          "type": "uint256"
        },
        {
          "name": "level",
          "type": "uint256"
        },
        {
          "name": "lossCount",
          "type": "uint256"
        }
      ],
      "payable": false,
      "stateMutability": "view",
      "type": "function"
    },
    {
      "constant": false,
      "inputs": [
        {
          "name": "_sharkId",
          "type": "uint256"
        }
      ],
      "name": "trainShark",
      "outputs": [],
      "payable": false,
      "stateMutability": "nonpayable",
      "type": "function"
    },
    {
      "constant": true,
      "inputs": [],
      "name": "getAllOpponents",
      "outputs": [
        {
          "name": "",
          "type": "uint256[]"
        }
      ],
      "payable": false,
      "stateMutability": "view",
      "type": "function"
    },
    {
      "constant": true,
      "inputs": [
        {
          "name": "",
          "type": "uint256"
        }
      ],
      "name": "species",
      "outputs": [
        {
          "name": "",
          "type": "string"
        }
      ],
      "payable": false,
      "stateMutability": "view",
      "type": "function"
    },
    {
      "constant": true,
      "inputs": [],
      "name": "getSharks",
      "outputs": [
        {
          "name": "",
          "type": "uint256[]"
        }
      ],
      "payable": false,
      "stateMutability": "view",
      "type": "function"
    },
    {
      "constant": false,
      "inputs": [],
      "name": "createBasicShark",
      "outputs": [],
      "payable": false,
      "stateMutability": "nonpayable",
      "type": "function"
    },
    {
      "constant": false,
      "inputs": [
        {
          "name": "_sharkId",
          "type": "uint256"
        },
        {
          "name": "_targetId",
          "type": "uint256"
        }
      ],
      "name": "sharkRace",
      "outputs": [],
      "payable": false,
      "stateMutability": "nonpayable",
      "type": "function"
    }
  ],
  "bytecode": "0x60606040526000600d556046600e55341561001957600080fd5b610ecd806100286000396000f30060606040526004361061008e576000357c0100000000000000000000000000000000000000000000000000000000900463ffffffff1680630d3cf8a7146100935780631aff92df146101525780632e9aca241461017e57806333ac6c7d1461023d5780633ab1d1a61461026057806355ed26c9146102ca578063653c631314610366578063ba19b655146103d0575b600080fd5b341561009e57600080fd5b6100b460048080359060200190919050506103e5565b6040518087815260200186815260200180602001858152602001848152602001838152602001828103825286818151815260200191508051906020019080838360005b838110156101125780820151818401526020810190506100f7565b50505050905090810190601f16801561013f5780820380516001836020036101000a031916815260200191505b5097505050505050505060405180910390f35b341561015d57600080fd5b61017c60048080359060200190919080359060200190919050506104e4565b005b341561018957600080fd5b61019f600480803590602001909190505061061c565b6040518087815260200186815260200180602001858152602001848152602001838152602001828103825286818151815260200191508051906020019080838360005b838110156101fd5780820151818401526020810190506101e2565b50505050905090810190601f16801561022a5780820380516001836020036101000a031916815260200191505b5097505050505050505060405180910390f35b341561024857600080fd5b61025e60048080359060200190919050506106ff565b005b341561026b57600080fd5b6102736107d1565b6040518080602001828103825283818151815260200191508051906020019060200280838360005b838110156102b657808201518184015260208101905061029b565b505050509050019250505060405180910390f35b34156102d557600080fd5b6102eb600480803590602001909190505061090b565b6040518080602001828103825283818151815260200191508051906020019080838360005b8381101561032b578082015181840152602081019050610310565b50505050905090810190601f1680156103585780820380516001836020036101000a031916815260200191505b509250505060405180910390f35b341561037157600080fd5b6103796109bd565b6040518080602001828103825283818151815260200191508051906020019060200280838360005b838110156103bc5780820151818401526020810190506103a1565b505050509050019250505060405180910390f35b34156103db57600080fd5b6103e3610ae9565b005b6000806103f0610d03565b600080600080600a8881548110151561040557fe5b906000526020600020906006020190508060000154816001015482600201836003015484600401548560050154838054600181600116156101000203166002900480601f0160208091040260200160405190810160405280929190818152602001828054600181600116156101000203166002900480156104c75780601f1061049c576101008083540402835291602001916104c7565b820191906000526020600020905b8154815290600101906020018083116104aa57829003601f168201915b505050505093509650965096509650965096505091939550919395565b6000806000600b600086815260200190815260200160002060009054906101000a900473ffffffffffffffffffffffffffffffffffffffff1673ffffffffffffffffffffffffffffffffffffffff163373ffffffffffffffffffffffffffffffffffffffff1614151561055657600080fd5b600a8581548110151561056557fe5b90600052602060002090600602019250600a8481548110151561058457fe5b9060005260206000209060060201915061059e6064610c76565b9050600e54811115156105ec57826003016000815480929190600101919050555082600401600081548092919060010191905055508160050160008154809291906001019190505550610615565b826005016000815480929190600101919050555081600301600081548092919060010191905055505b5050505050565b600a8181548110151561062b57fe5b9060005260206000209060060201600091509050806000015490806001015490806002018054600181600116156101000203166002900480601f0160208091040260200160405190810160405280929190818152602001828054600181600116156101000203166002900480156106e35780601f106106b8576101008083540402835291602001916106e3565b820191906000526020600020905b8154815290600101906020018083116106c657829003601f168201915b5050505050908060030154908060040154908060050154905086565b80600b600082815260200190815260200160002060009054906101000a900473ffffffffffffffffffffffffffffffffffffffff1673ffffffffffffffffffffffffffffffffffffffff163373ffffffffffffffffffffffffffffffffffffffff1614151561076d57600080fd5b600a8281548110151561077c57fe5b906000526020600020906006020160000160008154809291906001019190505550600a828154811015156107ac57fe5b9060005260206000209060060201600101600081548092919060010191905055505050565b6107d9610d17565b6000806107e4610d17565b600080600c60003373ffffffffffffffffffffffffffffffffffffffff1673ffffffffffffffffffffffffffffffffffffffff16815260200190815260200160002054945084600a80549050039350836040518059106108415750595b9080825280602002602001820160405250925060009150600090505b83811015610900573373ffffffffffffffffffffffffffffffffffffffff16600b600083815260200190815260200160002060009054906101000a900473ffffffffffffffffffffffffffffffffffffffff1673ffffffffffffffffffffffffffffffffffffffff161415156108f3578083838151811015156108dc57fe5b906020019060200201818152505081806001019250505b808060010191505061085d565b829550505050505090565b600081600a8110151561091a57fe5b016000915090508054600181600116156101000203166002900480601f0160208091040260200160405190810160405280929190818152602001828054600181600116156101000203166002900480156109b55780601f1061098a576101008083540402835291602001916109b5565b820191906000526020600020905b81548152906001019060200180831161099857829003601f168201915b505050505081565b6109c5610d17565b6109cd610d17565b600080600c60003373ffffffffffffffffffffffffffffffffffffffff1673ffffffffffffffffffffffffffffffffffffffff16815260200190815260200160002054604051805910610a1d5750595b9080825280602002602001820160405250925060009150600090505b600a80549050811015610ae0573373ffffffffffffffffffffffffffffffffffffffff16600b600083815260200190815260200160002060009054906101000a900473ffffffffffffffffffffffffffffffffffffffff1673ffffffffffffffffffffffffffffffffffffffff161415610ad357808383815181101515610abc57fe5b906020019060200201818152505081806001019250505b8080600101915050610a39565b82935050505090565b60006001600a8054806001018281610b019190610d2b565b9160005260206000209060060201600060c060405190810160405280600a8152602001600a81526020016040805190810160405280601381526020017f626c61636b746970207265656620736861726b00000000000000000000000000815250815260200160008152602001600181526020016000815250909190915060008201518160000155602082015181600101556040820151816002019080519060200190610bae929190610d5d565b50606082015181600301556080820151816004015560a08201518160050155505003905033600b600083815260200190815260200160002060006101000a81548173ffffffffffffffffffffffffffffffffffffffff021916908373ffffffffffffffffffffffffffffffffffffffff160217905550600c60003373ffffffffffffffffffffffffffffffffffffffff1673ffffffffffffffffffffffffffffffffffffffff1681526020019081526020016000206000815480929190600101919050555050565b6000600d60008154809291906001019190505550814233600d54604051808481526020018373ffffffffffffffffffffffffffffffffffffffff1673ffffffffffffffffffffffffffffffffffffffff166c010000000000000000000000000281526014018281526020019350505050604051809103902060019004811515610cfb57fe5b069050919050565b602060405190810160405280600081525090565b602060405190810160405280600081525090565b815481835581811511610d5857600602816006028360005260206000209182019101610d579190610ddd565b5b505050565b828054600181600116156101000203166002900490600052602060002090601f016020900481019282601f10610d9e57805160ff1916838001178555610dcc565b82800160010185558215610dcc579182015b82811115610dcb578251825591602001919060010190610db0565b5b509050610dd99190610e34565b5090565b610e3191905b80821115610e2d576000808201600090556001820160009055600282016000610e0c9190610e59565b60038201600090556004820160009055600582016000905550600601610de3565b5090565b90565b610e5691905b80821115610e52576000816000905550600101610e3a565b5090565b90565b50805460018160011615610100020316600290046000825580601f10610e7f5750610e9e565b601f016020900490600052602060002090810190610e9d9190610e34565b5b505600a165627a7a72305820c99db446362aa781d9b6eda5d425e3e28ad0b8ecec17a3c9eca2372f5d7d1c0d0029",
  "source": "pragma solidity ^0.4.18;\n\nimport \"./Shark.sol\";\n\ncontract SharkRace is Shark {\n  uint randNonce = 0;\n  uint attackVictoryProbability = 70;\n\n  function randMod(uint _modulus) internal returns(uint) {\n    randNonce++;\n    return uint(keccak256(now, msg.sender, randNonce)) % _modulus;\n  }\n\n  function sharkRace(uint _sharkId, uint _targetId) external  {\n    require (msg.sender == owners[_sharkId]);\n    SharkObject storage myShark = sharks[_sharkId];\n    SharkObject storage enemyShark = sharks[_targetId];\n    uint rand = randMod(100);\n    if (rand <= attackVictoryProbability) {\n      myShark.winCount++;\n      myShark.level++;\n      enemyShark.lossCount++;\n\n    } else {\n      myShark.lossCount++;\n      enemyShark.winCount++;\n    }\n    \n  }\n}\n",
  "sourcePath": "/Users/raysapida/tartan/Blockchain/cryptosharks/Blockchain/contracts/SharkRace.sol",
  "compiler": {
    "name": "solc",
    "version": "0.4.21+commit.dfe3193c.Emscripten.clang"
  },
  "schemaVersion": "2.0.0",
  "updatedAt": "2018-05-12T18:22:16.122Z"
}