{
  "contractName": "Shark",
  "abi": [
    {
      "constant": true,
      "inputs": [
        {
          "name": "",
          "type": "uint256"
        }
      ],
      "name": "sharks",
      "outputs": [
        {
          "name": "speed",
          "type": "uint256"
        },
        {
          "name": "strength",
          "type": "uint256"
        },
        {
          "name": "typeOfShark",
          "type": "string"
        },
        {
          "name": "winCount",
          "type": "uint256"
        },
        {
          "name": "level",
          "type": "uint256"
        },
        {
          "name": "lossCount",
          "type": "uint256"
        }
      ],
      "payable": false,
      "stateMutability": "view",
      "type": "function"
    },
    {
      "constant": true,
      "inputs": [
        {
          "name": "",
          "type": "uint256"
        }
      ],
      "name": "species",
      "outputs": [
        {
          "name": "",
          "type": "string"
        }
      ],
      "payable": false,
      "stateMutability": "view",
      "type": "function"
    },
    {
      "constant": false,
      "inputs": [],
      "name": "createBasicShark",
      "outputs": [],
      "payable": false,
      "stateMutability": "nonpayable",
      "type": "function"
    },
    {
      "constant": false,
      "inputs": [
        {
          "name": "_sharkId",
          "type": "uint256"
        }
      ],
      "name": "trainShark",
      "outputs": [],
      "payable": false,
      "stateMutability": "nonpayable",
      "type": "function"
    },
    {
      "constant": true,
      "inputs": [],
      "name": "getShark",
      "outputs": [
        {
          "name": "",
          "type": "uint256[]"
        }
      ],
      "payable": false,
      "stateMutability": "view",
      "type": "function"
    }
  ],
  "bytecode": "0x6060604052341561000f57600080fd5b6108c78061001e6000396000f30060606040526004361061006d576000357c0100000000000000000000000000000000000000000000000000000000900463ffffffff1680632e9aca241461007257806333ac6c7d1461014e5780633dda168e1461017157806355ed26c9146101db578063ba19b65514610277575b600080fd5b341561007d57600080fd5b610093600480803590602001909190505061028c565b604051808781526020018681526020018060200185815260200184815260200183815260200182810382528681815460018160011615610100020316600290048152602001915080546001816001161561010002031660029004801561013a5780601f1061010f5761010080835404028352916020019161013a565b820191906000526020600020905b81548152906001019060200180831161011d57829003601f168201915b505097505050505050505060405180910390f35b341561015957600080fd5b61016f60048080359060200190919050506102d6565b005b341561017c57600080fd5b6101846103a6565b6040518080602001828103825283818151815260200191508051906020019060200280838360005b838110156101c75780820151818401526020810190506101ac565b505050509050019250505060405180910390f35b34156101e657600080fd5b6101fc60048080359060200190919050506104d2565b6040518080602001828103825283818151815260200191508051906020019080838360005b8381101561023c578082015181840152602081019050610221565b50505050905090810190601f1680156102695780820380516001836020036101000a031916815260200191505b509250505060405180910390f35b341561028257600080fd5b61028a610584565b005b600a8181548110151561029b57fe5b906000526020600020906006020160009150905080600001549080600101549080600201908060030154908060040154908060050154905086565b600b600082815260200190815260200160002060009054906101000a900473ffffffffffffffffffffffffffffffffffffffff1673ffffffffffffffffffffffffffffffffffffffff163373ffffffffffffffffffffffffffffffffffffffff1614151561034357600080fd5b600a8181548110151561035257fe5b906000526020600020906006020160000160008154809291906001019190505550600a8181548110151561038257fe5b90600052602060002090600602016001016000815480929190600101919050555050565b6103ae610711565b6103b6610711565b600080600c60003373ffffffffffffffffffffffffffffffffffffffff1673ffffffffffffffffffffffffffffffffffffffff168152602001908152602001600020546040518059106104065750595b9080825280602002602001820160405250925060009150600090505b600a805490508110156104c9573373ffffffffffffffffffffffffffffffffffffffff16600b600083815260200190815260200160002060009054906101000a900473ffffffffffffffffffffffffffffffffffffffff1673ffffffffffffffffffffffffffffffffffffffff1614156104bc578083838151811015156104a557fe5b906020019060200201818152505081806001019250505b8080600101915050610422565b82935050505090565b600081600a811015156104e157fe5b016000915090508054600181600116156101000203166002900480601f01602080910402602001604051908101604052809291908181526020018280546001816001161561010002031660029004801561057c5780601f106105515761010080835404028352916020019161057c565b820191906000526020600020905b81548152906001019060200180831161055f57829003601f168201915b505050505081565b60006001600a805480600101828161059c9190610725565b9160005260206000209060060201600060c060405190810160405280600a8152602001600a81526020016040805190810160405280601381526020017f626c61636b746970207265656620736861726b00000000000000000000000000815250815260200160008152602001600181526020016000815250909190915060008201518160000155602082015181600101556040820151816002019080519060200190610649929190610757565b50606082015181600301556080820151816004015560a08201518160050155505003905033600b600083815260200190815260200160002060006101000a81548173ffffffffffffffffffffffffffffffffffffffff021916908373ffffffffffffffffffffffffffffffffffffffff160217905550600c60003373ffffffffffffffffffffffffffffffffffffffff1673ffffffffffffffffffffffffffffffffffffffff1681526020019081526020016000206000815480929190600101919050555050565b602060405190810160405280600081525090565b8154818355818115116107525760060281600602836000526020600020918201910161075191906107d7565b5b505050565b828054600181600116156101000203166002900490600052602060002090601f016020900481019282601f1061079857805160ff19168380011785556107c6565b828001600101855582156107c6579182015b828111156107c55782518255916020019190600101906107aa565b5b5090506107d3919061082e565b5090565b61082b91905b808211156108275760008082016000905560018201600090556002820160006108069190610853565b600382016000905560048201600090556005820160009055506006016107dd565b5090565b90565b61085091905b8082111561084c576000816000905550600101610834565b5090565b90565b50805460018160011615610100020316600290046000825580601f106108795750610898565b601f016020900490600052602060002090810190610897919061082e565b5b505600a165627a7a72305820e4c423d398178923727aff3ba40bb5cb0db88eaf9b0c8f64033fca8c46794efd0029",
  "source": "pragma solidity ^0.4.18;\r\n\r\ncontract Shark {\r\n    string[10] public species;\r\n    SharkObject[] public sharks;\r\n    mapping (uint => address) owners;\r\n    mapping (address=> uint) ownerSharkCount;\r\n    struct SharkObject {\r\n        uint speed;\r\n        uint strength;\r\n        string typeOfShark;\r\n        uint winCount;\r\n        uint level;\r\n        uint lossCount;\r\n    }\r\n\r\n    function createBasicShark() public {\r\n        uint id = sharks.push(SharkObject(10, 10, \"blacktip reef shark\", 0, 1, 0)) - 1;\r\n        owners[id] = msg.sender;\r\n        ownerSharkCount[msg.sender]++;\r\n    } \r\n\r\n    function trainShark(uint _sharkId) public {\r\n        require(msg.sender == owners[_sharkId]);\r\n        sharks[_sharkId].speed ++;\r\n        sharks[_sharkId].strength ++; \r\n        // TODO: Increase Speed or Strength\r\n    }  \r\n    //TODO: Double check struct syntax\r\n    function getShark() public view returns (uint[]) {\r\n        uint[] memory result = new uint[](ownerSharkCount[msg.sender]);\r\n        uint counter = 0;\r\n        for (uint i = 0; i < sharks.length; i++) {\r\n            if (owners[i] == msg.sender) {\r\n                result[counter] = i;\r\n                counter++;\r\n            }\r\n        }\r\n        return result;\r\n    }\r\n}\r\n",
  "sourcePath": "C:\\Users\\ianwh\\Desktop\\Blockchain\\contracts\\Shark.sol",
  "compiler": {
    "name": "solc",
    "version": "0.4.19+commit.c4cbbb05.Emscripten.clang"
  },
  "schemaVersion": "1.0.1",
  "updatedAt": "2018-03-10T20:21:08.164Z"
}