{
  "contractName": "Shark",
  "abi": [
    {
      "constant": true,
      "inputs": [
        {
          "name": "",
          "type": "uint256"
        }
      ],
      "name": "sharks",
      "outputs": [
        {
          "name": "speed",
          "type": "uint256"
        },
        {
          "name": "strength",
          "type": "uint256"
        },
        {
          "name": "typeOfShark",
          "type": "string"
        },
        {
          "name": "winCount",
          "type": "uint256"
        },
        {
          "name": "level",
          "type": "uint256"
        },
        {
          "name": "lossCount",
          "type": "uint256"
        }
      ],
      "payable": false,
      "stateMutability": "view",
      "type": "function"
    },
    {
      "constant": true,
      "inputs": [
        {
          "name": "",
          "type": "uint256"
        }
      ],
      "name": "species",
      "outputs": [
        {
          "name": "",
          "type": "string"
        }
      ],
      "payable": false,
      "stateMutability": "view",
      "type": "function"
    },
    {
      "constant": false,
      "inputs": [],
      "name": "createBasicShark",
      "outputs": [],
      "payable": false,
      "stateMutability": "nonpayable",
      "type": "function"
    },
    {
      "constant": false,
      "inputs": [
        {
          "name": "_sharkId",
          "type": "uint256"
        }
      ],
      "name": "trainShark",
      "outputs": [],
      "payable": false,
      "stateMutability": "nonpayable",
      "type": "function"
    },
    {
      "constant": true,
      "inputs": [
        {
          "name": "_sharkId",
          "type": "uint256"
        }
      ],
      "name": "getShark",
      "outputs": [
        {
          "name": "speed",
          "type": "uint256"
        },
        {
          "name": "strenght",
          "type": "uint256"
        },
        {
          "name": "typeOfShark",
          "type": "string"
        },
        {
          "name": "winCount",
          "type": "uint256"
        },
        {
          "name": "level",
          "type": "uint256"
        },
        {
          "name": "lossCount",
          "type": "uint256"
        }
      ],
      "payable": false,
      "stateMutability": "view",
      "type": "function"
    },
    {
      "constant": true,
      "inputs": [],
      "name": "getSharks",
      "outputs": [
        {
          "name": "",
          "type": "uint256[]"
        }
      ],
      "payable": false,
      "stateMutability": "view",
      "type": "function"
    },
    {
      "constant": true,
      "inputs": [],
      "name": "getAllOpponents",
      "outputs": [
        {
          "name": "",
          "type": "uint256[]"
        }
      ],
      "payable": false,
      "stateMutability": "view",
      "type": "function"
    }
  ],
  "bytecode": "0x6060604052341561000f57600080fd5b610cd18061001e6000396000f300606060405260043610610083576000357c0100000000000000000000000000000000000000000000000000000000900463ffffffff1680630d3cf8a7146100885780632e9aca241461014757806333ac6c7d146102065780633ab1d1a61461022957806355ed26c914610293578063653c63131461032f578063ba19b65514610399575b600080fd5b341561009357600080fd5b6100a960048080359060200190919050506103ae565b6040518087815260200186815260200180602001858152602001848152602001838152602001828103825286818151815260200191508051906020019080838360005b838110156101075780820151818401526020810190506100ec565b50505050905090810190601f1680156101345780820380516001836020036101000a031916815260200191505b5097505050505050505060405180910390f35b341561015257600080fd5b61016860048080359060200190919050506104ad565b6040518087815260200186815260200180602001858152602001848152602001838152602001828103825286818151815260200191508051906020019080838360005b838110156101c65780820151818401526020810190506101ab565b50505050905090810190601f1680156101f35780820380516001836020036101000a031916815260200191505b5097505050505050505060405180910390f35b341561021157600080fd5b6102276004808035906020019091905050610590565b005b341561023457600080fd5b61023c610662565b6040518080602001828103825283818151815260200191508051906020019060200280838360005b8381101561027f578082015181840152602081019050610264565b505050509050019250505060405180910390f35b341561029e57600080fd5b6102b4600480803590602001909190505061079c565b6040518080602001828103825283818151815260200191508051906020019080838360005b838110156102f45780820151818401526020810190506102d9565b50505050905090810190601f1680156103215780820380516001836020036101000a031916815260200191505b509250505060405180910390f35b341561033a57600080fd5b61034261084e565b6040518080602001828103825283818151815260200191508051906020019060200280838360005b8381101561038557808201518184015260208101905061036a565b505050509050019250505060405180910390f35b34156103a457600080fd5b6103ac61097a565b005b6000806103b9610b07565b600080600080600a888154811015156103ce57fe5b906000526020600020906006020190508060000154816001015482600201836003015484600401548560050154838054600181600116156101000203166002900480601f0160208091040260200160405190810160405280929190818152602001828054600181600116156101000203166002900480156104905780601f1061046557610100808354040283529160200191610490565b820191906000526020600020905b81548152906001019060200180831161047357829003601f168201915b505050505093509650965096509650965096505091939550919395565b600a818154811015156104bc57fe5b9060005260206000209060060201600091509050806000015490806001015490806002018054600181600116156101000203166002900480601f0160208091040260200160405190810160405280929190818152602001828054600181600116156101000203166002900480156105745780601f1061054957610100808354040283529160200191610574565b820191906000526020600020905b81548152906001019060200180831161055757829003601f168201915b5050505050908060030154908060040154908060050154905086565b80600b600082815260200190815260200160002060009054906101000a900473ffffffffffffffffffffffffffffffffffffffff1673ffffffffffffffffffffffffffffffffffffffff163373ffffffffffffffffffffffffffffffffffffffff161415156105fe57600080fd5b600a8281548110151561060d57fe5b906000526020600020906006020160000160008154809291906001019190505550600a8281548110151561063d57fe5b9060005260206000209060060201600101600081548092919060010191905055505050565b61066a610b1b565b600080610675610b1b565b600080600c60003373ffffffffffffffffffffffffffffffffffffffff1673ffffffffffffffffffffffffffffffffffffffff16815260200190815260200160002054945084600a80549050039350836040518059106106d25750595b9080825280602002602001820160405250925060009150600090505b83811015610791573373ffffffffffffffffffffffffffffffffffffffff16600b600083815260200190815260200160002060009054906101000a900473ffffffffffffffffffffffffffffffffffffffff1673ffffffffffffffffffffffffffffffffffffffff161415156107845780838381518110151561076d57fe5b906020019060200201818152505081806001019250505b80806001019150506106ee565b829550505050505090565b600081600a811015156107ab57fe5b016000915090508054600181600116156101000203166002900480601f0160208091040260200160405190810160405280929190818152602001828054600181600116156101000203166002900480156108465780601f1061081b57610100808354040283529160200191610846565b820191906000526020600020905b81548152906001019060200180831161082957829003601f168201915b505050505081565b610856610b1b565b61085e610b1b565b600080600c60003373ffffffffffffffffffffffffffffffffffffffff1673ffffffffffffffffffffffffffffffffffffffff168152602001908152602001600020546040518059106108ae5750595b9080825280602002602001820160405250925060009150600090505b600a80549050811015610971573373ffffffffffffffffffffffffffffffffffffffff16600b600083815260200190815260200160002060009054906101000a900473ffffffffffffffffffffffffffffffffffffffff1673ffffffffffffffffffffffffffffffffffffffff1614156109645780838381518110151561094d57fe5b906020019060200201818152505081806001019250505b80806001019150506108ca565b82935050505090565b60006001600a80548060010182816109929190610b2f565b9160005260206000209060060201600060c060405190810160405280600a8152602001600a81526020016040805190810160405280601381526020017f626c61636b746970207265656620736861726b00000000000000000000000000815250815260200160008152602001600181526020016000815250909190915060008201518160000155602082015181600101556040820151816002019080519060200190610a3f929190610b61565b50606082015181600301556080820151816004015560a08201518160050155505003905033600b600083815260200190815260200160002060006101000a81548173ffffffffffffffffffffffffffffffffffffffff021916908373ffffffffffffffffffffffffffffffffffffffff160217905550600c60003373ffffffffffffffffffffffffffffffffffffffff1673ffffffffffffffffffffffffffffffffffffffff1681526020019081526020016000206000815480929190600101919050555050565b602060405190810160405280600081525090565b602060405190810160405280600081525090565b815481835581811511610b5c57600602816006028360005260206000209182019101610b5b9190610be1565b5b505050565b828054600181600116156101000203166002900490600052602060002090601f016020900481019282601f10610ba257805160ff1916838001178555610bd0565b82800160010185558215610bd0579182015b82811115610bcf578251825591602001919060010190610bb4565b5b509050610bdd9190610c38565b5090565b610c3591905b80821115610c31576000808201600090556001820160009055600282016000610c109190610c5d565b60038201600090556004820160009055600582016000905550600601610be7565b5090565b90565b610c5a91905b80821115610c56576000816000905550600101610c3e565b5090565b90565b50805460018160011615610100020316600290046000825580601f10610c835750610ca2565b601f016020900490600052602060002090810190610ca19190610c38565b5b505600a165627a7a72305820b48bba75531c4a402a2f4a2d86447a6171524c1dfa9c943cfb747e74767a7f280029",
  "source": "pragma solidity ^0.4.18;\n\ncontract Shark {\n    string[10] public species;\n    SharkObject[] public sharks;\n    mapping (uint => address) owners;\n    mapping (address=> uint) ownerSharkCount;\n    struct SharkObject {\n        uint speed;\n        uint strength;\n        string typeOfShark;\n        uint winCount;\n        uint level;\n        uint lossCount;\n    }\n\n    modifier onlyOwnerOf(uint _sharkId) {\n        require(msg.sender == owners[_sharkId]);\n        _;\n    }\n\n    function createBasicShark() public {\n        uint id = sharks.push(SharkObject(10, 10, \"blacktip reef shark\", 0, 1, 0)) - 1;\n        owners[id] = msg.sender;\n        ownerSharkCount[msg.sender]++;\n    }\n\n    function trainShark(uint _sharkId) public onlyOwnerOf(_sharkId) {\n        sharks[_sharkId].speed ++;\n        sharks[_sharkId].strength ++;\n    }\n\n    function getShark(uint _sharkId) public view returns (uint speed, uint strenght, string typeOfShark, uint winCount, uint level, uint lossCount) {\n      SharkObject storage shark = sharks[_sharkId];\n      return (shark.speed, shark.strength, shark.typeOfShark, shark.winCount, shark.level, shark.lossCount);\n    }\n\n    function getSharks() public view returns (uint[]) {\n        uint[] memory result = new uint[](ownerSharkCount[msg.sender]);\n        uint counter = 0;\n        for (uint i = 0; i < sharks.length; i++) {\n            if (owners[i] == msg.sender) {\n                result[counter] = i;\n                counter++;\n            }\n        }\n        return result;\n    }\n\n    function getAllOpponents() public view returns (uint[]) {\n      uint sharkCount = ownerSharkCount[msg.sender];\n      uint total = sharks.length - sharkCount;\n\n      uint[] memory result = new uint[](total);\n      uint counter = 0;\n      for (uint i = 0; i < total; i++) {\n        if (!(owners[i] == msg.sender)) {\n          result[counter] = i;\n          counter++;\n        }\n      }\n      return result;\n    }\n\n}\n",
  "sourcePath": "/Users/raysapida/tartan/Blockchain/cryptosharks/Blockchain/contracts/Shark.sol",
  "compiler": {
    "name": "solc",
    "version": "0.4.21+commit.dfe3193c.Emscripten.clang"
  },
  "schemaVersion": "2.0.0",
  "updatedAt": "2018-05-12T18:22:16.125Z"
}